{
  "_format": "hh-sol-artifact-1",
  "contractName": "MarketPlace",
  "sourceName": "contracts/MarketPlace.sol",
  "abi": [
    {
      "inputs": [],
      "stateMutability": "nonpayable",
      "type": "constructor"
    },
    {
      "inputs": [],
      "name": "commissionPercentage",
      "outputs": [
        {
          "internalType": "uint256",
          "name": "",
          "type": "uint256"
        }
      ],
      "stateMutability": "view",
      "type": "function"
    },
    {
      "inputs": [],
      "name": "getCommissionValue",
      "outputs": [
        {
          "internalType": "uint256",
          "name": "",
          "type": "uint256"
        }
      ],
      "stateMutability": "view",
      "type": "function"
    },
    {
      "inputs": [
        {
          "internalType": "address",
          "name": "nftAddress",
          "type": "address"
        },
        {
          "internalType": "uint256",
          "name": "tokenId",
          "type": "uint256"
        },
        {
          "internalType": "address",
          "name": "seller",
          "type": "address"
        }
      ],
      "name": "purchaseNFT",
      "outputs": [
        {
          "internalType": "uint256",
          "name": "",
          "type": "uint256"
        },
        {
          "internalType": "bool",
          "name": "",
          "type": "bool"
        }
      ],
      "stateMutability": "payable",
      "type": "function"
    },
    {
      "inputs": [
        {
          "internalType": "uint256",
          "name": "_newCommission",
          "type": "uint256"
        }
      ],
      "name": "updateCommission",
      "outputs": [],
      "stateMutability": "nonpayable",
      "type": "function"
    }
  ],
  "bytecode": "0x60808060405234610032576001600081905580546001600160a01b03191633179055600560025561035c90816100388239f35b600080fdfe60806040908082526004908136101561001757600080fd5b600090813560e01c9081630392f9411461030a575080639d55fba714610265578063d575fe64146102425763ea9d1f701461005157600080fd5b606036600319011261023f576001600160a01b0391803583811680820361023b576024803595604435938185168095036101ab5760028754146101f957600287553b156101c15760025434600019048111341515166101af5760649034020492803b156101ab5786809160648b51809481936323b872dd60e01b83528a8c84015233898401528d60448401525af180156101a157610170575b5085808085819460015416828215610167575bf11561015d578134039334851161014c5750508380938193829383903414610143575bf1156101385760019055815190815260016020820152f35b8251903d90823e3d90fd5b506108fc610120565b634e487b7160e01b86526011905284fd5b86513d86823e3d90fd5b506108fc6100fd565b67ffffffffffffffff8197929394971161018f578852949190826100ea565b634e487b7160e01b8252604186528382fd5b89513d89823e3d90fd5b8680fd5b634e487b7160e01b8752601186528287fd5b875162461bcd60e51b815260208187015260138184015272496e76616c6964204e4654206164647265737360681b6044820152606490fd5b885162461bcd60e51b8152602081880152601f818501527f5265656e7472616e637947756172643a207265656e7472616e742063616c6c006044820152606490fd5b8380fd5b80fd5b5082346102615781600319360112610261576020906002549051908152f35b5080fd5b50919034610306576020366003190112610306576001546001600160a01b03163303610292573560025551f35b602060a492519162461bcd60e51b8352820152604360248201527f4f6e6c7920746865206f776e6572206f662074686520636f6e7472616374206360448201527f616e207570646174652074686520636f6d6d697373696f6e2070657263656e7460648201526261676560e81b6084820152fd5b8280fd5b9050346102615781600319360112610261576020906002548152f3fea2646970667358221220cb36271f7ec6b34a4fdecb01cfe83829da1b067b0ab5f2a12c933e52220d60a664736f6c63430008100033",
  "linkReferences": {},
  "deployedLinkReferences": {}
}